:08000000803102288731F62F40
:100A4C00640080010131890B272D0034F000200057
:100A5C00111E2D2D700823009A00080000308531DE
:100A6C0045258531013085314525080021001910B7
:100A7C009910991519169916191799130800F3005E
:100A8C0020000F11730885315A25853120008F15F0
:100A9C001530F200C630F100F10B522DF20B522D35
:100AAC00000020008F110800F000701C602D200049
:100ABC000F16622D20000F12F01C662D8F16672D5D
:100ACC008F12701D6B2D0F176C2D0F13F01D702DC9
:100ADC008F1708008F130800F401F50171087407D3
:100AEC0084007208753D8500120003190800710816
:100AFC00740784007208753D8500000885312C252B
:100B0C0085310130F4070030F53D742DF801F90101
:100B1C007508780784007608793D85001200031962
:100B2C0008007508780784007608793D8500000870
:100B3C008531A62585310130F8070030F93D8E2D21
:100B4C00F40074080F39F1007108F2007408F039E0
:100B5C00F1007108F30020000F157308F100043048
:100B6C00F136890BB62D710885315A258531200057
:100B7C008F153530F100F10BC12D20008F1172084B
:100B8C0085315A25853120008F153530F100F10B58
:100B9C00CD2D20008F11080085313C258531210099
:100BAC008F1022008F1021008F0123008F018631BE
:100BBC00882685310330F8000830F7007830F600CD
:100BCC00F60BE62DF70BE62DF80BE62D85313425CB
:100BDC0021000D1123000D1155303C008F00AA305F
:100BEC008F000F103D001A08E03914389A003C00B1
:100BFC002408E0390B38A40055308F00AA308F0040
:100C0C000F140800F7007703031D282E74087F3E8D
:100C1C00F5007508FA007A08F5000430F536890BF2
:100C2C00142E7508F6007608F8007A080F39F500CE
:100C3C007508F900780885314525863179088531A4
:100C4C004525080002307706031D08007408BF3ED6
:100C5C00F5007508FA007A08F5000430F536890BB2
:100C6C00342E7508F6007608F8007A080F39F5006E
:100C7C007508F90078088531452586317908853164
:100C8C00452508008531D225863100302000A90089
:100C9C000030A8004B30A7000030A6008731502749
:100CAC008631F401F40A01308631082686311A3077
:100CBC00FC00F830FB00FB0B612EFC0B612E0000DE
:100CCC003930F5008830F60085318C2586311130AD
:100CDC0085312C2586313330F1008830F200853196
:100CEC00722586312930FD009630FC00A630FB00C1
:100CFC00FB0B7E2EFC0B7E2EFD0B7E2E85313425C0
:100D0C008631572E003085315A2586316830F500F2
:100D1C00E430F400F40B902EF50B902E0000033011
:100D2C008531452586311A30F500F830F400F40B86
:100D3C009D2EF50B9D2E0000033085314525863107
:100D4C003A30F5002330F400F40BAA2EF50BAA2E42
:100D5C000330853145258631023085314525863174
:100D6C00023085314525863108308531452586315F
:100D7C0000308531452586310C308531452586314D
:100D8C0000308531452586310630853145250800F2
:100D9C002000A101F31FDF2EF009F109F209F3097C
:100DAC00F00A0319F10A0319F20A0319F30AA10153
:100DBC00A10AF71FF02EF409F509F609F709F40A50
:100DCC000319F50A0319F60A0319F70A0130F8009A
:100DDC007808A1060030A5000030A4000030A30064
:100DEC000030A20073087204710470040319392FC7
:100DFC00A001A00AF31B0E2F0130F035F10DF20DFE
:100E0C00F30D890B032F0130F8007808A007002F91
:100E1C000130A235A30DA40DA50D890B0F2F73085E
:100E2C007702031D232F72087602031D232F7108EE
:100E3C007502031D232F70087402031C2E2F7008DB
:100E4C00F4027108F53B7208F63B7308F73B221469
:100E5C000130F336F20CF10CF00C890B2F2F013012
:100E6C00A002031D0E2F21080319472FA209A30965
:100E7C00A409A509A20A0319A30A0319A40A0319B0
:100E8C00A50A2508F3002408F2002308F100220823
:100E9C00F000080020002608AA002708AB0028084C
:100EAC00AC002908AD000630AA35AB0DAC0DAD0D6C
:100EBC00890B5A2F2D08F3002C08F2002B08F10097
:100ECC002A08F0002608AE002708AF002808B0005A
:100EDC002908B1000630AE35AF0DB00DB10D890B40
:100EEC00712FAE09AF09B009B109AE0A0319AF0AE7
:100EFC000319B00A0319B10A00302E07F40024308C
:100F0C002F3DF500F430303DF6000030313DF70058
:100F1C008631CE2687317108FA007008F90001304D
:100F2C007A02003003197902031CE32F20002608F3
:100F3C00AA002708AB002808AC002908AD00043033
:100F4C00AA35AB0DAC0DAD0D890BA62F2D08F300FA
:100F5C002C08F2002B08F1002A08F0002608AE003D
:100F6C002708AF002808B0002908B1000430AE35BE
:100F7C00AF0DB00DB10D890BBD2FAE09AF09B00986
:100F8C00B109AE0A0319AF0A0319B00A0319B10A61
:100F9C0000302E07F40024302F3DF500F430303DA6
:100FAC00F6000030313DF7008631CE2687317108CE
:100FBC00FA007008F90023001E1501307A02003087
:100FCC000319790203180800790823009B001E12EC
:100FDC009D1721008E170E1723001D169E16080054
:100FEC0032308400003085001130853126252000F8
:100FFC008631482E01340034003400340A34003475
:10100C00003400346434003400340034E8340334E5
:10101C00003400341034273400340034A0348634C7
:10102C0001340034403442340F340034803496346C
:10103C00983400340034E134F53405340034CA34C7
:10104C009A343B3425346C3475342E342534363490
:10105C002E3436346C3475340034483465346C3486
:10106C006C346F3400345234653461346434793404
:02107C0000343E
:020000040001F9
:04000E00A4D9FFDE94
:00000001FF
